:040000000DEF00F010
:04000800E5EF19F017
:06001800FF00C2EF1BF027
:1026000000BA2F00000000000000000000000000E1
:1026100000000000000000000000000000000000BA
:1026200000000000000000000000000000000000AA
:10263000000000000000000000000000006E3800F4
:102640004C38002A3800000000FA3600F43900EE59
:1026500039000000003439000000001A3300003A4D
:1026600000FA3900DA3700423900000000B03700C4
:10267000000000000000000000B23900000000412E
:10268000444320526573756C743A2025640A0D002A
:012690000049
:1026920021BE4EEF13F051EF13F0010E52EF13F083
:1026A200000E2A6E2A50D8B459EF13F05BEF13F0E4
:1026B2005FEF13F0206C211ED8B0212A050178BFEC
:1026C20067EF13F065EF13F06DEF13F0000E256E58
:1026D200010E246E71EF13F077C524F578C525F548
:1026E20075C526F576C527F52A50D8B47BEF13F0C9
:1026F2007DEF13F094EF13F02606D8A027062A5098
:10270200D8A486EF13F088EF13F08EEF13F0000ECB
:10271200236E2B0E226E92EF13F0000E236E2D0EFF
:10272200226E22C52AF5000E296E1F0E286E000E9B
:102732009A6FCCEF13F02806D8A029067B0E282426
:10274200D96E050E2920DA6E20C503F521C504F5E0
:10275200000E066E0A0E056EA8EC16F003C509F50A
:1027620004C50AF512EC1BF00950300FDF6E240687
:10277200D8A025062606D8A0270620C503F521C520
:1027820004F5000E066E0A0E056EEAEC15F003C59E
:1027920020F504C521F529BED7EF13F0295008E131
:1027A2002804D8A0D7EF13F0D9EF13F0EFEF13F00E
:1027B20020502110D8A4E0EF13F0E2EF13F09CEFC9
:1027C20013F025BEEFEF13F0255006E12404D8B034
:1027D200EDEF13F0EFEF13F09CEF13F02A50D8B4A3
:1027E200F5EF13F0F7EF13F002EF14F02806D8A07C
:1027F20029067B0E2824D96E050E2920DA6E2AC5F9
:10280200DFF41EC513F51FC514F57B0E2824156EC3
:10281200050E2920166E26C517F527C518F5E7EC13
:1028220018F012002DC5D9F42EC5DAF4DEC4F6F480
:10283200DDC4F7F4000EF86E0800F550250AD8A49E
:1028420025EF14F027EF14F096EF14F02DC5D9F40C
:102852002EC5DAF4DE2A000EDD22000E0501766FA7
:10286200000E756F75C550F5776978692DC5D9F475
:102872002EC5DAF4DEC437F5DDC438F537C5F6F413
:1028820038C5F7F4000EF86E0800F550640AD8B4A3
:102892004DEF14F04FEF14F05FEF14F037C5F6F47C
:1028A20038C5F7F4000EF86E0800F550690AD8A48E
:1028B2005DEF14F05FEF14F08DEF14F02FC5D9F433
:1028C20030C5DAF4DFC431F5020EDE26DFC432F59C
:1028D200000EDD2231C5D9F432C5DAF4DEC433F597
:1028E200DDC434F5010E3724316E000E3820326E0D
:1028F2002DC5D9F42EC5DAF431C5DEF432C5DDF4C6
:102902002BC51EF52CC51FF533C520F534C521F5A1
:1029120049EC13F0ACEF14F02DC5D9F42EC5DAF45E
:10292200DE2A000EDD22ACEF14F02DC5D9F42EC53F
:10293200DAF4DEC4F6F4DDC4F7F4000EF86E080033
:10294200F550036E046A2BC505F52CC506F585EC1A
:1029520015F08DEF14F0120066EC1BF0A19E63ECF3
:102962001AF0DCEF14F0F2EC1AF011EF15F000ECB3
:1029720017F011EF15F024EC19F011EF15F022EC1D
:1029820018F011EF15F04CEC16F011EF15F04DECBC
:1029920017F011EF15F067EC18F011EF15F08AEC53
:1029A2001AF011EF15F010EC1AF011EF15F095EC8A
:1029B20017F011EF15F05F504A6E4B6A4B50000A48
:1029C200D8B4E6EF14F011EF15F04A50010AD8B46A
:1029D200B4EF14F0030AD8B4B8EF14F0010AD8B473
:1029E200BCEF14F0070AD8B4C0EF14F0010AD8B44F
:1029F200C4EF14F0030AD8B4C8EF14F0010AD8B433
:102A0200CCEF14F00F0AD8B4D0EF14F0010AD8B406
:102A1200D4EF14F0030AD8B4D8EF14F011EF15F084
:102A22005E50D8B417EF15F019EF15F0B0EF14F0AF
:102A320058EC1CF0B0EF14F00DEF00F0000EBE6E7B
:102A4200000EBF6E000EC06E000EC16E000EC26E92
:102A52000F0EC66EC768BF0EC86EC9680F0ECA6E6B
:102A62000F0E0401006FEF0E086F9F0E106F1869B2
:102A7200070E206F000E016F000E096F000E116F1E
:102A8200000E196F000E216F000E026F000E0A6F0A
:102A9200000E126F000E1A6F000E226F03690B698F
:102AA20013691B69070E236F0E0E046FEF0E0C6F76
:102AB2009F0E146F1C690F0E246F000E0201896FA6
:102AC200000E886F000E876F000E866F150E726FF4
:102AD200200E176F000E0401056F000E066F000E28
:102AE200076F000E0D6F000E0E6F000E0F6F000EBF
:102AF200156F000E166F000E176F000E256F000E79
:102B0200266F000E276F120005500610D8B48CEF06
:102B120015F08EEF15F097EF15F005500610D8A4BA
:102B220095EF15F097EF15F09CEF15F0035005ECBB
:102B32001DF0E9EF15F020EE0AF00550D9260650F7
:102B4200DA22DE50DE10D8B4A9EF15F0ABEF15F0A3
:102B5200C6EF15F020EE0AF00550D9260650DA220B
:102B620010EE03F00550E1260650E222DE50E65C4C
:102B7200E650800A0B6EDE50800A0B58D8B0C4EFC4
:102B820015F0C6EF15F0E9EF15F020EE03F0055051
:102B9200D9260650DA22DEC407F5DDC408F505C5DC
:102BA200D9F406C5DAF4DEC409F5DDC40AF5075026
:102BB2000924D96E08500A20DA6E03C5DFF420EE2C
:102BC20003F00550D9260650DA22DE2A000EDD2255
:102BD2001200000E086E06BEF3EF15F0F1EF15F0CD
:102BE200F9EF15F0056C061ED8B0062A010E086E24
:102BF20004BE00EF16F0FEEF15F006EF16F0036CC0
:102C0200041ED8B0042A010E081A000E0A6E000E25
:102C1200096E05500610D8B411EF16F013EF16F036
:102C22003BEF16F0010E076E1BEF16F0D89005363B
:102C32000636072A06AE20EF16F022EF16F017EF3F
:102C420016F0D89009360A360550035C065004582F
:102C5200D8A02EEF16F030EF16F035EF16F0055033
:102C6200035E0650045A0980D89006320532072EB8
:102C720022EF16F00850D8B441EF16F043EF16F0E9
:102C820047EF16F0096C0A1ED8B00A2A09C503F5E7
:102C92000AC504F512005D50D8A452EF16F054EFA5
:102CA20016F05AEF16F0000EBE6E010E576E010EB0
:102CB2005D6E5D04D8A460EF16F062EF16F09DEF32
:102CC20016F0000EABEC1BF004C503F5046A0350CA
:102CD200586E7F0E416E260E426EEAC347F5EBC375
:102CE20048F5040E496ED89048324732492E74EFA7
:102CF20016F047C543F548C544F502EC1CF0530EE7
:102D0200E82EFED700F058065828D8A48BEF16F00C
:102D12008DEF16F080EF16F05738F00BBE6ED8909C
:102D22005736100E5718D8A499EF16F09BEF16F0ED
:102D32009DEF16F0010E576E5E50D8B4A3EF16F059
:102D4200A5EF16F0A7EF16F0000E5D6E1200000E52
:102D5200086E04BEB1EF16F0AFEF16F0B7EF16F043
:102D6200036C041ED8B0042A010E086E06BEBEEF24
:102D720016F0BCEF16F0C2EF16F0056C061ED8B0C6
:102D8200062A05500610D8B4C9EF16F0CBEF16F09C
:102D9200EFEF16F0010E076ED3EF16F0D89005365E
:102DA2000636072A06AED8EF16F0DAEF16F0CFEFA6
:102DB20016F00550035C06500458D8A0E3EF16F055
:102DC200E5EF16F0E9EF16F00550035E0650045ADF
:102DD200D89006320532072EDAEF16F00850D8B432
:102DE200F5EF16F0F7EF16F0FBEF16F0036C041E8A
:102DF200D8B0042A03C503F504C504F512005D50DA
:102E0200D8A406EF17F008EF17F00EEF17F0000E38
:102E1200BE6E00EC1DF0010E5D6E5D04D8A414EFD1
:102E220017F016EF17F040EF17F090EC1CF00009C6
:102E3200D8B41EEF17F020EF17F016EF17F0B19885
:102E4200E0EC1CF05B2A030E5B18D8A42BEF17F002
:102E52002DEF17F040EF17F0BEB832EF17F035EF55
:102E620017F0010E36EF17F0000EFF0A056E053A55
:102E7200BE500518EF0B0518BE6E000E5B6E5E505D
:102E8200D8B446EF17F048EF17F04CEF17F0FDEC0F
:102E92001CF0000E5D6E12005D50D8A453EF17F0C7
:102EA20055EF17F05DEF17F0000EBE6E74EC1CF0DC
:102EB200FAEC1CF0010E5D6E5D04D8A463EF17F00E
:102EC20065EF17F086EF17F0000EABEC1BF0040E67
:102ED200476ED89004320332472E6AEF17F003C5CB
:102EE2004EF504C54FF57F0E416E260E426E4EC55D
:102EF20043F54FC544F502EC1CF04EC503F54FC532
:102F020004F5E7EC1CF003EC1DF05E50D8B48CEF36
:102F120017F08EEF17F094EF17F0F7EC1CF082EC3D
:102F22001CF0000E5D6E12005D50D8A49BEF17F0EE
:102F32009DEF17F0A1EF17F0000EBE6E010E5D6E51
:102F42005D04D8A4A7EF17F0A9EF17F0D2EF17F09E
:102F5200000EABEC1BF00C0E0B6ED8900432033259
:102F62000B2EAEEF17F00350546EAA0E046E550EE0
:102F7200036EECEC1CF0000E036E000E046E380EB5
:102F8200056E54C506F5B9EC19F0000E036E000E7D
:102F9200046E380E056E94EC1BF0536E5338F00B32
:102FA200BE6E5E50D8B4D8EF17F0DAEF17F0DCEF50
:102FB20017F0000E5D6E1200000E0201A16F000EEE
:102FC200A26F000EA36F000EA46F000EA56F000E7D
:102FD200A66F000EA76F000EA86F000EA96F000E5D
:102FE200AA6F200EAB6F800EAC6F000EAD6F020E9B
:102FF200AE6F000EAF6F200EB06F000EB16F800E7D
:10300200B26F000EB36F000E036E000E046E000E60
:10301200056E37EC1CF0000E036E000E046E000EFF
:10302200056E26EC1CF0000E036E000E046E000E00
:10303200056E15EC1CF0000E05017A6F000E796F1B
:1030420012005D50D8A428EF18F02AEF18F02EEFE6
:1030520018F0000EBE6E010E5D6E5D04D8A434EF52
:1030620018F036EF18F05CEF18F0000EABEC1BF026
:103072000C0E476ED89004320332472E3BEF18F005
:103082000350596E7F0E416E260E426EEAC347F51B
:10309200EBC348F5040E496ED89048324732492EA8
:1030A2004DEF18F047C543F548C544F502EC1CF056
:1030B2005938F00BBE6E5E50D8B462EF18F064EF70
:1030C20018F066EF18F0000E5D6E12005D50D8A485
:1030D2006DEF18F06FEF18F078EF18F0000EBE6E7B
:1030E200BE88010E566E00EC1DF0010E5D6E5D0491
:1030F200D8A47EEF18F080EF18F09DEF18F090EC56
:103102001CF00009D8B488EF18F08AEF18F080EFAD
:1031120018F0B198E0EC1CF0D8905636100E561804
:10312200D8A496EF18F098EF18F09AEF18F0010E65
:10313200566E5638F00BBE6E5E50D8B4A3EF18F040
:10314200A5EF18F0A9EF18F0FDEC1CF0000E5D6E73
:103152001200000E7E6E030E7F6E000E806E000E59
:10316200816E100E826E090E836E000E846E000E4A
:10317200856E000E866E000E886ECD0E896E0C0E68
:103182008A6E000E8B6E080E8C6EB59CB59E859075
:103192008592A59EA59C000E036E000E046E000E85
:1031A200056EB6EC1CF0000E036E000E046E000EEF
:1031B200056EAFEC1CF0000E036E000E046E000EE6
:1031C200056EBDEC1CF0800E876E120018BEECEF8F
:1031D20018F0EEEF18F0F4EF18F017C51CF518C54B
:1031E2001DF5F8EF18F0000E1D6E000E1C6E000E9D
:1031F2001B6E000E1A6E0AEF19F0000E046E200EFE
:10320200036E13C505F514C506F585EC15F01A4ACB
:103212001B2A1C501A5C1B50800A196E1D50800A12
:103222001958D8A017EF19F019EF19F0FEEF18F09E
:1032320015C50CF516C50DF513C50EF514C50FF51C
:10324200B0EC1AF012005D50D8A42AEF19F02CEF5E
:1032520019F033EF19F0000EBE6EBE88010E5A6EE1
:10326200010E5D6E5D04D8A439EF19F03BEF19F041
:1032720052EF19F0520E036E2A0EE82EFED7032EDD
:10328200FCD7D8905A36100E5A18D8A44BEF19F022
:103292004DEF19F04FEF19F0010E5A6E5A38F00B3C
:1032A200BE6E5E50D8B458EF19F05AEF19F05CEFC9
:1032B20019F0000E5D6E1200000E0301D96F000EB0
:1032C200DA6F000EDB6F000EDC6F000EDF6F000E98
:1032D200E06F000EE56F000EE76F000EEC6F000E60
:1032E200EE6F000EEF6F000EF06F000EF16F000E2A
:1032F200F26F000EF46F100EF56F000EF66F000EF7
:10330200F76F000EF86F000EF96F000EFA6F800E65
:10331200F36FAF94B0901200000E03011F6F000E06
:10332200206F010E216F0B0E1D6FDB0E1C6F1C51E7
:103332001DC306F5076A06C507F5066A06104C6E38
:1033420007504D6E0C0E036E3A0E046E000E056EA3
:10335200A1EC1CF0000E036E000E046E000E056E52
:10336200A8EC1CF0B198B19A000E03011E6F120076
:10337200000ED6BE010E0A6E05C545F003C507F55F
:1033820004C508F505C509F508C507F509C508F519
:10339200096A07500001446F03C543F006C546F0B1
:1033A2004151F80B0309416FD69E000152C542F00C
:1033B2005150426F40810AB002D0D69E01D0D68EC3
:1033C200F80E000141171200FAC401F5FBC402F520
:1033D2009EAEEEEF19F0F0EF19F0FBEF19F0AEAE82
:1033E200F5EF19F0F7EF19F0FBEF19F009EC1DF00A
:1033F2000BEF1AF0A1AE00EF1AF002EF1AF00BEF8A
:103402001AF0B1AE07EF1AF009EF1AF00BEF1AF04B
:103412004CEC1BF002C5FBF401C5FAF411005D503F
:10342200D8A416EF1AF018EF1AF021EF1AF0BE8C9A
:10343200BE88BE9EBE9A000178810300010E5D6EB9
:103442005D04D8A427EF1AF029EF1AF02FEF1AF033
:10345200BE9CBE98BE8EBE8A000178915E50D8B4E2
:1034620035EF1AF037EF1AF039EF1AF0000E5D6EF1
:1034720012003BC53FF53CC540F54EEF1AF039C589
:103482002BF53AC52CF53F0E2D6E050E2E6E3DC561
:103492002FF53EC530F513EC14F03FC5F6F440C5E8
:1034A200F7F4000EF86E0800F5500009D8A45CEF9E
:1034B2001AF05EEF1AF040EF1AF0000E3A6E000EAC
:1034C200396E12005C50D8A469EF1AF06BEF1AF053
:1034D2007EEF1AF0CFB870EF1AF072EF1AF089EFA0
:1034E2001AF0110E036E3A0EE82EFED7032EFCD709
:1034F20000D0010E5C6E89EF1AF0CFA883EF1AF0AC
:1035020085EF1AF089EF1AF0000E5C6E010E5E6E06
:1035120012005D50D8A490EF1AF092EF1AF0A3EFC8
:103522001AF0000EBE6EBE88010E556ED68EA18EAA
:10353200900E036E380E046E000E056ED9EC1CF070
:10354200010E5D6E5E50D8B4A9EF1AF0ABEF1AF01F
:10355200AFEF1AF0A19ED69E000E5D6E1200000E15
:10356200126E000E116EC1EF1AF010C503F5046A57
:103572000EC505F50FC506F585EC15F0114A122AA0
:1035820011500C24D96E12500D20DA6EDF50106EDD
:103592001050D8A4CFEF1AF0D1EF1AF0B6EF1AF00C
:1035A2001200D69AAF90D680000E036E000E046E03
:1035B200000E056ED2EC1CF0B490D682000E036EA3
:1035C200000E046E000E056ECBEC1CF0B890D68493
:1035D200000E036E000E046E000E056EC4EC1CF0AD
:1035E20012005D50D8A4F8EF1AF0FAEF1AF0FEEFCD
:1035F2001AF0000EBE6E010E5D6E5D04D8A404EFDB
:103602001BF006EF1BF007EF1BF0BE885E50D8B42C
:103612000DEF1BF00FEF1BF011EF1BF0000E5D6EB4
:1036220012000ABE1FEF1BF00A5006E10904D8B0CF
:103632001DEF1BF01FEF1BF02DEF1BF009C50BF563
:103642000AC50CF50B1E0C1E0B4A0C2A0BC509F5FC
:103652000CC50AF531EF1BF009C509F50AC50AF5D3
:103662001200000E0001D56F020ED76F260ED86F22
:10367200000ED96F000EDA6F000EDB6F020EDC6FE8
:10368200000EDD6F000EDE6F000EDF6F000ED46FD6
:10369200800ED66F1200B19E0501A451A511A6118C
:1036A200D8B456EF1BF058EF1BF065EF1BF002D8B1
:1036B20065EF1BF00500FA6EA451FD6EA551FE6E7A
:1036C200A651FF6EFA501200120066EC1CF01FECBD
:1036D20015F05DEC19F032EC1BF0F1EC1CF0AAECE9
:1036E20018F0D8EC1BF08DEC19F07DEC1BF0DDEC42
:1036F20017F0D2EC1AF01200010E0301266F000E31
:10370200256F000E276F2369000E226F100E036EC5
:103712003A0E046E000E056E9AEC1CF0B196800E05
:103722000301246F120005C545F003C506F504C563
:1037320007F505C508F507C506F508C507F5086AC2
:1037420006500001446F03C543F0F80E4117408153
:1037520046511200076E07C5ECF30301F39DF38196
:10376200F3B1B6EF1BF0B8EF1BF0B1EF1BF0EB516A
:10377200066E056AEA510524036E000E0620046EE9
:10378200120001EE60F13B0EEE6AE806FDE101EE89
:103792004CF1140EEE6AE806FDE10401080E5D6FBD
:1037A200000E5E6F000E5F6F0001ADEF14F0F30EBE
:1037B2000301196F000E186F480E1B6F0E0E036E79
:1037C2003A0E046E000E056ED9EC1CF0B19EA18E6D
:1037D200800E03011A6F120003011EA5F3EF1BF006
:1037E200F5EF1BF0FDEF1BF01E9104501D6F03C59A
:1037F2001CF31E8101EF1CF004501D6F03C51CF366
:103802001200430E456E050E466E000E396E000E16
:103812003A6E41C53BF542C53CF5450E3D6E050E7F
:103822003E6E3AEC1AF01200035004100510D8B4A0
:103832001DEF1CF01FEF1CF025EF1CF003C560F517
:1038420004C561F505C562F51200035004100510A8
:10385200D8B42EEF1CF030EF1CF036EF1CF003C58D
:1038620063F504C564F505C565F51200035004103F
:103872000510D8B43FEF1CF041EF1CF047EF1CF0ED
:1038820003C566F504C567F505C568F5120055045C
:10389200D8A44EEF1CF050EF1CF052EF1CF0100EAB
:1038A200556ED89055325538F00BBE6E1200000E90
:1038B2005E6E5F2A0A0E5F6461EF1CF063EF1CF01C
:1038C20065EF1CF0010E5F6E1200630E0001AD6F1A
:1038D200000EAF6F000EB36F020EB16F000EB06F2D
:1038E200000EAC6F1200550E0201006FAA0E006F9F
:1038F2000091010E086F550E006FAA0E006F008135
:103902001200550E0201006FAA0E006F0091000E08
:10391200086F550E006FAA0E006F00811200B1B839
:1039220095EF1CF098EF1CF0010E99EF1CF0000EC1
:10393200120003C59BF504C59CF505C59DF5120053
:1039420003C5A1F504C5A2F505C5A3F5120003C57B
:103952009EF504C59FF505C5A0F5120003C5AAF59D
:1039620004C5ABF505C5ACF5120003C5ADF504C53C
:10397200AEF505C5AFF5120003C5A7F504C5A8F558
:1039820005C5A9F5120003C56CF504C56DF505C59D
:103992006EF5120003C56FF504C570F505C571F526
:1039A200120003C572F504C573F505C574F512005E
:1039B20003C5A4F504C5A5F505C5A6F512004CC5B9
:1039C20003F54DC504F5EDEC1BF0120003C589F4B7
:1039D20004508A6E12000450516E03C552F5120053
:1039E200F4EC1CF012000001419F12000301249F1D
:1039F20012000301248F120003011E911200030121
:103A02001E8112008784120012001200120012009E
:023A12001200A0
:020000040020DA
:10000000FFFFFFFFFFFFFFFFFFFFFFFFFFFFFFFF00
:10001000FFFFFFFFFFFFFFFFFFFFFFFFFFFFFFFFF0
:10002000FFFFFFFFFFFFFFFFFFFFFFFFFFFFFFFFE0
:10003000FFFFFFFFFFFFFFFFFFFFFFFFFFFFFFFFD0
:020000040030CA
:08000000ECFFF7F7BFFFFFFF63
:01000900FFF7
:00000001FF
